:020000040000FA
:100000000040002001B801003DB801003FB80100E8
:1000100000000000000000000000000000000000E0
:1000200000000000000000000000000041B80100D6
:10003000000000000000000043B8010045B80100C6
:1000400047B80100C567010049BF010047B801007A
:1000500047B801000000000001B9010047B80100E5
:1000600029260000B5C40100BDBD010047B801004C
:1000700047B8010047B8010047B8010047B8010080
:1000800047B8010047B8010047B8010047B8010070
:1000900047B80100B1B401007DB50100652700003B
:1000A0007527000047B801000000000000000000B4
:1000B0000000000000000000000000000000000040
:1000C000054B0648033310B51B1A062B03D9044B06
:1000D000002B00D0984710BD180100201801002007
:1000E000000000000648074910B5091A8910CB0F17
:1000F0005918491003D0044B002B00D0984710BD6D
:1001000018010020180100200000000010B5074C65
:100110002378002B09D1FFF7D3FF054B002B02D02A
:10012000044800E000BF0123237010BD200100201F
:100130000000000094E90300094B10B5002B03D028
:100140000849094800E000BF08480368002B02D1B5
:10015000FFF7C8FF10BD064B002BF9D09847F7E713
:10016000000000002401002094E903001801002091
:1001700000000000144B002B00D1124B9D46402282
:1001800092029A1A924600218B460F461148124A53
:10019000121A23F0CBFB0D4B002B00D098470C4BD1
:1001A000002B00D098470020002104000D000B48D0
:1001B00023F0C8F823F082FA200029002CF075FA09
:1001C00023F0DEF8000008000040002000000000DE
:1001D0000000000018010020F82F0020F93502006F
:1001E00010B50B790349002B00D1034924F0ADFF72
:1001F00010BDC0462A5303002F53030037B50C002F
:10020000110000221D0000920123200007F040FE93
:10021000002C05D028680DF0D7FC034B002800D136
:10022000024B18003EBDC04688CB020080CB0200C6
:10023000C3790248002B00D10148704788CB0200E7
:1002400080CB020010B504F00BFC014810BDC04685
:10025000D8EB020010B5086804F002FC004810BD9D
:10026000D8EB020073B50D00022836D1012601A992
:10027000686806F00BFD76423400019BC318834288
:1002800012D101A9286806F001FD73427341624250
:100290006241DBB2D2B2019904F026FD002820D1E0
:1002A0001049114828F0A5FE0278722A01D0772A59
:1002B00006D1611C0ED1723A544254410130DEE73E
:1002C000622A01D0742A05D1711C03D1743A5642B6
:1002D0005641F3E7054810F087F8012676423400CE
:1002E000CFE776BD4253030038F4020035530300D4
:1002F000F8B50D000400160002F034F92B000327B6
:1003000023433B4219D1BE4217D9B208290020002D
:100310001BF0A8F83100B94360183E406918002E60
:1003200002D032002CF072F880220549D2008B589E
:10033000002BFCD002F006F9F8BD29002000EEE702
:1003400000E00140014B58687047C046942E0020E1
:10035000014B18687047C046942E0020F0B5194E26
:1003600087B03368050000200C00019325F0C1FD23
:1003700030600090206828F0F1FD019B0700336099
:10038000114E022D03D0A0680DF0F8F906002100EF
:1003900063680831A81E039305F07EFB009B049060
:1003A0000593002203AB032130000FF0F3FA074B53
:1003B00004009F4203D00100380025F0ACFF20006C
:1003C00007B0F0BD942E002074D40200D8EB0200D8
:1003D000F8B50326050007003540022D16D10E4B57
:1003E0000340062B12D0FF23DB05C418B443201CA6
:1003F00000211CF05DFB002806D080231B06E418BA
:10040000B443064B2C43E7183800F8BD38000DF014
:100410001BFD0700F8E7C046070080FF0000808052
:100420001FB569460FF0ACFB040020000FF00AFC7A
:10043000002802D1044804B010BD0DF0C5FB00280F
:10044000F3D10248F7E7C04688CB020080CB020018
:100450001FB569460FF094FB040020000FF0F2FB7B
:10046000002802D1044804B010BD0DF0ADFB0028F7
:10047000F3D00248F7E7C04680CB020088CB0200E9
:1004800010B50DF0FFF9034B002800D1024B180006
:1004900010BDC04688CB020080CB020037B50DF0FE
:1004A00055FA01AB7F2806D80121187001221800E7
:1004B00005F094FF3EBD1E49820988420BD84021B9
:1004C00049420A431A703F220240802040421043B2
:1004D00058704231EAE7174C010BA0420ED8202495
:1004E00064422143197080215F34494222402040F8
:1004F0000A43014399705A700321D7E70E4CA0427A
:1005000012D81024850C64422C431C703F25802493
:10051000294064422A402840214322432043597005
:100520009A70D8700421C1E704480FF05DFFC046FF
:10053000FF070000FFFF0000FFFF10005153030002
:10054000F0B589B0019202900D0000223049019867
:10055000039303F0F3FD0090002801D0436800935B
:10056000029B012B10D0002634000196029B9E4274
:1005700020D0009B002B3BD12F68002C3ED12C6853
:10058000019701360435F1E7002404A928680FF02B
:10059000F7FA2700029002980FF054FB051E0CD1C9
:1005A000002C07D122001B49019803F0C7FD002849
:1005B0001BD04468200009B0F0BD009B2E00002B2A
:1005C00004D02900180028F0D0FC0600002C09D027
:1005D0003A00310003980FF00FFF0F4B984201D003
:1005E00025003E002C003700D5E70C480FF0FCFE3C
:1005F0002968009828F0B9FC0700BEE7019A390085
:1006000003980FF0F9FE044B9842BAD1B7E7C04601
:10061000961700005614000088CB020072530300A6
:1006200037B501A9050006F031FB1E4B04002B4035
:10063000062B05D0AB072AD11B4B2A689A4226D13C
:100640000199200028F00BFE0190012822D120788A
:1006500043B2002B04DB012023785B0018433EBD2E
:100660007F23013418403F3B034208D13F222378C7
:1006700019009143802905D027F08AFCEFE79843C1
:100680005B10F1E78001134001341843EFE7019B51
:10069000012BE0D0019A054905480CF0CDF80BF08C
:1006A000DDFFC046070080FFD0FA02008B53030035
:1006B000A0F50200F0B5140087B00290039100226B
:1006C0002349200003F03AFD0022050021492000C3
:1006D00003F034FD01230400049305931E4F002D05
:1006E00007D068681D4B984203D004A906F0CEFAE3
:1006F00007001B4E002C07D06068184B984203D0AF
:1007000005A906F0C3FA06000024029B154D9C4281
:100710000AD10023059A019300933100280000F0CC
:10072000FDF90E4807B0F0BD002C07D00023049A55
:10073000019300933900280000F0F0F90399A30019
:100740000022C95828000DF031F80134DDE7C04619
:10075000661A0000D614000054E50300D8EB02002E
:10076000C378030094D102007FB50D4D0400A84268
:1007700013D00C4E0122010030000DF017F80A4989
:10078000300024F0E2FC04230293084B0394DB695D
:1007900002AA0321064801939847280004B070BDBF
:1007A000D8EB020094D10200C37803003812030092
:1007B00018CE020010B5040086B06A4602A81021C7
:1007C00010F008F80122210068460CF0EFFF02A9A2
:1007D000024805F0CDFD06B010BDC046D0FA0200BB
:1007E00070B50C68E30726D4A30703D1174B226822
:1007F0009A4220D0012820D948680DF0A7F80600B9
:1008000020000DF007F9051C30001DF0E7F8011C71
:100810000F481FF0C7FD011C041C281C1CF0EAFD3A
:100820001FF02AFA211C1CF0F5FB03230224984335
:10083000084B0443E418200070BD20000DF0EAF8D6
:100840001FF01AFA03F00EF90400F4E70CD50200C9
:10085000000020410000808030B50B0085B01400FE
:10086000012802D909480FF07FFF09480121C26819
:100870000192019D0022A8472200039003A90120B4
:1008800010F03AFB039805B030BDC046DF530300BB
:10089000F80E030013B50400080005F0C1FD6A4618
:1008A000010020000FF0EEF8009B0248002B00D161
:1008B000014816BD88CB020080CB020037B500246A
:1008C000022800D98C6848680D6805F0A9FD0A4B1C
:1008D0000100002C00D0094B28006A469847009878
:1008E000002806D001990400002902D010F0B0F9C8
:1008F000040020003EBDC046E9FA000085FA000071
:1009000070B504000800150005F08AFD2A000100FA
:1009100020000FF011F9014870BDC046D8EB02006D
:100920007FB50B00012803D1002118680CF058FF97
:10093000102102A828F09DFB0C4902A825F04EFAD0
:10094000032804D10A4827F009FA0BF087FE039B1D
:100950000193002B03D1042801D10648F3E702A933
:10096000054805F005FD07B000BDC04651DD030098
:100970000CF3020068F10200D0FA020010B50FF08B
:1009800039F9002804D1034827F0E8F90BF066FE96
:1009900010BDC046ECF4020010B5022803D0054992
:1009A000054828F026FB4A680B2009680FF024FD53
:1009B00010BDC046C5530300FCF30200F8B50E009D
:1009C00000280FD10400294B1D680021080028F0E1
:1009D000B0FD00270600002D34D10025002C40D1A9
:1009E0003000F8BD0868830715D10268204B9A4291
:1009F0000DD128F019FE050030680CF0BFFE1D4B2C
:100A0000C26800249A42E0D134680434DDE71A4910
:100A100003008A4202D00CF0B1FE03009D6B002D52
:100A2000EAD0164B2A689A42E6D00025E4E7EA6845
:100A3000FB009958002904D0042902D0300010F09E
:100A4000F9F90137AB689F42F1D3C6E7A268EB0022
:100A50009958002904D0042902D0300010F0EAF996
:100A6000013563689D42F1D3BAE7C046942E002059
:100A7000381203004D30000074D4020098E60200E2
:100A8000A3230021024A5B000248D1527047C046AE
:100A9000942E0020D8EB0200A3230121024A5B0020
:100AA0000248D1527047C046942E0020D8EB020075
:100AB000A323044A5B00D35A0348002B00D1034808
:100AC0007047C046942E002088CB020080CB0200E5
:100AD00010B506F07DFF014810BDC046D8EB0200FE
:100AE00010B50C4C002808D1FC34236D18005A1C9A
:100AF00002D0180127F04CFA10BD08680CF026FF50
:100B0000FC34031E044803DA01235B422365F3E748
:100B10001B09FBE7942E0020D8EB0200F0B587B04C
:100B2000039205910D9A03990500521A0CA90978B0
:100B300020200C00844339D030293BD00CA90291ED
:100B40000121802401911C4036D0D40FA4186410D8
:100B5000171B002C37DD2600019B0493B34200DDF8
:100B600004966B68049A029928689847049BF61AC1
:100B7000002EF1DC039B002B06D01A0005996B6850
:100B800028689847039BE418002F0CDDE419019EA8
:100B9000BE4200DD3E003200029928686B6898472B
:100BA000BF1B002FF3DC200007B0F0BD0749029106
:100BB0001021C6E70649FAE701271F4001D11400BA
:100BC000C7E71700D6E70024D4E7C0461C5403004B
:100BD0002D540300F0B593B0069318AB20CB0490CE
:100BE0001B780F0016000793CB070BD48B0703D19C
:100BF000854B0A689A4205D038000CF0A7FE012701
:100C00004000074381231D4209D1079B302B06D1A9
:100C10001A9B1B9A934200DA1A9200231B93380006
:100C200027F092F90AAA1300002806DBAB070FD5BC
:100C30002B231370123B04AA9B18EA0616D5022E2A
:100C40000DD130221A70069A01325A7002330DE02B
:100C500013006A07F1D520221A701923EBE7082E3A
:100C60003CD130221A70AA0535D4013300220AA9DA
:100C70001A705B1A0593AB0600D52C320EAB0B93A2
:100C8000102300210C931B9B0D91012B01DD4023B0
:100C90001D4304ABD9756B4640241B7E2C40039248
:100CA000029322D03B00019100960DAA0CA90BA83B
:100CB00002F08CFF037807002D2B2DD104AAD375E9
:100CC0000D9B1B9A013B01370D93012A00DD95E036
:100CD000002634004AE0069A0E32B6E7102EC5D13F
:100CE00030221A70069A1732AFE70AAB01930096CA
:100CF0003B000DAA0CA90BA802F068FF1B9B070084
:100D00002600012B32DD0D9B1B9C9C4215DA1C003A
:100D100013E00026340019E01B9B012BD8DD0D9B4E
:100D20001B9C9C4200DA1C00172304AA9B181B780A
:100D3000002B00D00134059BE4181A9BA342E8DD88
:100D400001261C1B2E4001D02600002401239D43B8
:100D50002F330793002C09D0103B009300230194FC
:100D60001A002A490498FFF7D9FE04006B0621D522
:100D7000172104ABC9180B78002B0AD000230122DD
:100D8000009301920498FFF7C9FE1A9B2418013BB7
:100D90001A93059B002B0DD0012301930023059A84
:100DA00000930AA90498FFF7B9FE1A9B059A241824
:100DB0009B1A1A931B9B012B00DD1A931A9B0D9A09
:100DC0000193079B3900009304982B00FFF7A6FEC0
:100DD0002418002E09D020230093002301961A0026
:100DE0000A490498FFF79AFE24180B980EAB984214
:100DF00001D025F078FA200013B0F0BD1B9C9C4276
:100E000098DA1C0096E7C0460CD5020051DD0300BD
:100E1000F0B50600140000278DB00D002B78002BD4
:100E20001ED1A94208D26B1A04931A003068736865
:100E300098472900049BFF180B78002B00D13EE156
:100E40004B1C049320230025302208210420089302
:100E5000049B1B78002B07D10693013B079355E0B9
:100E6000252BDED00135D9E72D2B05D12C3B1D4399
:100E7000049B01330493EBE72B2B01D1293BF6E7CD
:100E8000202B01D10543F3E7212B01D10D43EFE7DF
:100E9000302B23D000230A210693049B1B781A00D1
:100EA000303A092A1ED92E2B50D1049A049B52782D
:100EB00001332A2A1FD0049300230A210793049B9D
:100EC0001B781A00303A092A20D8079A4A43D318C7
:100ED000303B0793049B01330493F0E740230892CF
:100EE0001D43C5E7069A4A43D318303B0693049B3B
:100EF00001330493D1E7049B023304932368043441
:100F00000793DB43079ADB171A400792049B1B7871
:100F10006C3B59425941049B5B1804931B78059321
:100F2000002B00D1CBE0642B00D1A1E022D8502BC4
:100F300029D00ED8453B022B00D8A9E00122049904
:100F40003068736898470137099452E001235B4287
:100F500084E7059B622B3CD057D8582BEED1231D3C
:100F60000993069B01950393089B029341230093E9
:100F7000313B7BE0059B712B53D00FD8672B00D8FA
:100F800086E0702BDAD1231D0993069B019503930C
:100F9000089B029361230093513B67E0059B752BEF
:100FA0005AD0782BEFD0732BC8D1231D2468099316
:100FB000002C49D0079B013303D1200022F07EFF93
:100FC0000790069B079A0193089B210000932B0032
:100FD0000BE0231D09932368002B0ED0069B0422EF
:100FE0000193089B374900932B003000FFF796FDD3
:100FF0003F180499099C01310FE7069B05220193D4
:10100000089B314900932B00EFE7231D09932368C8
:101010000BA90B70069B01220193089B00932B00E8
:10102000E3E7231D0BA92068099324F058FD079BD3
:101030000100013301D10B9B0793069B079A019393
:10104000089B00932B00D0E7069B06220193089B88
:101050001E4900932B00C8E7231D0993069B0195A9
:101060000393089B029361230093573B00220AE0FD
:10107000231D0993069B01220393089B019502936C
:1010800061230093573B2168300024F06DF8AFE7EF
:10109000072307349C4323002068616808330993C1
:1010A0001EF0D4FA079B011C0293069B059A01933C
:1010B000089B300000932B0024F0CAF898E7380012
:1010C0000DB0F0BD0A5403000F5403001554030083
:1010D000F7B50191114904001700002524F035F8F7
:1010E0007B689D4204D30E49200024F02EF8F7BD02
:1010F000002D03D00B49200024F027F8019BAE00FF
:101100009A5909492000BE1924F0E7F80122B16874
:1011100020000CF04BFB0135E2E7C0467BDC03000E
:1011200043B003003E5403004154030030B58DB07A
:10113000050068460BF06CFA011E10D12A1D012033
:1011400027F01BFF0122EB6804005B1001335B00FA
:101150001343EB600BF07AFA20000DB030BD01981C
:10116000054A0368934205D0044A00249342F3D011
:101170000BF074FA0024EFE7ECF4020094F20200A2
:10118000044B0B6003684B60436808008B600123CD
:10119000CB607047D8D102000022104B10491A6072
:1011A00003001233FF3341185A701A7004338B4214
:1011B000FAD101000300002209310833FF311A700F
:1011C0009A705A70DA7004339942F8D1C3237F229F
:1011D0009B00C254034A044B1A6070473C01002034
:1011E000110300004554030004000020F0B5002660
:1011F0007E24330031009A008218FF32577C7F2F03
:1012000044D0927CB618F6B25A1CEF2E2BD9C126C8
:101210007D25B60086193700AC46D2B2944516DA61
:1012200092008218FF3251749174D17411757D222D
:101230000233DBB29A4211DA00269A008218FF329A
:1012400054749174D17411750133DBB2D3E73D68E6
:10125000043FBD6001256D42AC44DFE73568013ACB
:101260007560043EE6E77D2FEED8094DEF5D012560
:101270002F42E9D0D3B2C1227D26920082189E422D
:10128000DADB1568013E5560043AF8E7F0BDC04668
:101290002855030070B5012240240F49531EDBB2CC
:1012A0009B00C318FF335D7C7F2D13D04D5D25421D
:1012B0000DD05D7D7F2D0AD04D5D7F2D07D9DD7D61
:1012C000002D04D06EB2002E01DB0135DD74013239
:1012D000D2B2E3E770BDC046D75403000300F7B5B0
:1012E00000214B4A1333FF338218197004339342A1
:1012F000FBD1FC2300249C462200844453B2002BE3
:1013000004DA444A444B00201A6008E063461F692F
:10131000BC4205D37F234432920013540120FEBD0A
:101320006346DE68355D602D01D9203DEDB2611C5C
:10133000C9B28F424FD0735C602B01D9203BDBB226
:10134000232D4BD1303B092B01D9344ADAE7023443
:10135000E1B28F4204D8FF2BF7D843700C00CDE7E1
:10136000745C2500303D092DF5D80A256B43013109
:10137000303BE318C9B2ECE70136512E2FD10023E0
:10138000274C1F5DDEB22A2F0CD1264FFF5CAF42E7
:1013900008D19300C318FF335E74447801321C7582
:1013A000D2B2DBE70133512BEBD11F4C493B083460
:1013B0002678AE4207D0013C002B01D11B4AA1E7A1
:1013C000013BDBB2F4E7002BF8D014004334A40057
:1013D0000419A370C2E7232DB7D000230026F7B26B
:1013E0000197104FF75DAF42C6D10D4FF75D2A2F21
:1013F000C2D09F42C0D1694693000979C318FF3318
:1014000059744178013202341975D2B2E1B2A5E7BC
:101410001203000048540300040000205A54030043
:101420006756030016560300B856030068540300BD
:1014300010B51130084A0949FF3003787F2B00D1DD
:1014400010BD02240457002C03DCCB5C4370043035
:10145000F3E7D35CFAE7C046C655030076550300B0
:1014600084460023F0B585B09F0067443800FF3004
:10147000417C7F2901D105B0F0BD0224544A525C61
:10148000224202D10133DBB2EEE70124224246D1EF
:101490001A190C19E4B200944E4C7D256418647836
:1014A000D2B20194C47C007D02940390C1208000DC
:1014B00060440400954228DA6C4692002478624425
:1014C000FF3254746C4624798D1C94746C46247AD3
:1014D000EDB2D4746C46247B14753E4C9A1C611892
:1014E0003C00FF348E78217DE77C00917D21D2B2D3
:1014F00091420FDA92006244FF3255749674D774A9
:101500006946097803331175BDE72668013D6660B9
:10151000043CCFE70468013944600438E8E71A0066
:101520000132D2B21000644644308000005D0028D1
:10153000F6D05A1C7F2809D00825254C245C2C4263
:1015400001D0D3B290E724380128FAD93C00481CD6
:10155000C0B200901F48FF34401840787D260190AB
:10156000E07CD2B20290207D0390C12080006044D4
:101570000500964222DA6D4692002D786244FF32D1
:1015800055746D462D79134E95746D462D7AD5742C
:101590006D462D7B15758D1C71188F78217D9A1CD9
:1015A00000917D21E67CD2B2EDB291420BDA92003D
:1015B0006244FF3255749774D674A1E72F68013ED8
:1015C0006F60043DD5E70468013944600438ECE7F6
:1015D000D754030076550300F7B500218B00C318DC
:1015E0001A00FF32547C9C46002C02D10131CBB250
:1015F0004AE07F2C00D129E11026954B1D5D4B1C44
:1016000035422BD0AD06ED0F2C00D67C177DC122C4
:101610007D25143492000194DBB282189D4218DAC1
:101620006A469B001279C318FF335A740022DE7495
:101630009A741F756246FF32547C4B1C352C00D0C7
:10164000C6E0517B834C615C490700D492E01021D5
:1016500087E01468013D5460043ADFE74E2C1ED148
:1016600018210D25D47C5574167DC1229200DBB261
:10167000821870359D420DDA9A008218FF3251743B
:101680000021D474917416751900A7E71B21E8E7AF
:101690001C21E6E71768013D5760043AEAE74F2C42
:1016A000F4D0502CF4D06DB2002D2CDAD57C002D66
:1016B00029D0DBB21D004435AD002D5C002D22D1B8
:1016C0008E1CF5B20195AD004519FF356F7C7F2F5B
:1016D00019D05F4EF75D7F2F15D9EF7C002F12D008
:1016E000C1227D2192008218019C8C4206DD1F22BE
:1016F0006A740022AA74EA742A75C5E7146801396D
:101700005460043AF0E74B1C172C2CD1557B4C1E2F
:10171000E4B2452D1CD12A235373230043339B008D
:101720001B5C4B4AD55C4B1C7F2D23D90134E4B2A2
:10173000A4000419FF34617C00297FD0525C7F2A09
:1017400018D9E27C002A15D162461E21FF3208E03A
:10175000392D01D12C23DFE73D49495D7F2909D986
:101760001221517406E0182C08D1517B384C615C71
:101770007F2901D8DBB287E71321F2E7202C04D1BF
:10178000517B3C29F6D12621EBE7482C15D1547D1D
:101790007F2C02D14B24547403E02D4D2C5DA40604
:1017A000F8D5547C2A4D2D5DED0700D442E7557BDA
:1017B000202D3CD10C3C5474DCE73C2CF1D1517D04
:1017C0007F29D7D0224C615C8906D3D43F21C8E75A
:1017D0002A2C17D1D17C147DC1227D259200DBB249
:1017E00082189D4209DA2B259A008218FF3255741F
:1017F0000025D1749574147546E71668013D56604E
:10180000043AEEE72C2C12D1D17C147DC1227D2527
:101810009200DBB282189D4204DA9A008218FF32ED
:101820002D25E4E71668013D5660043AF3E7452CA0
:1018300002D0392C00D0D9E60C006EE7617D7F29FB
:1018400098D0525C7F2A00D97EE793E7F7BDC04667
:10185000D754030028550300F7B5050000221300F4
:1018600044339B005B5D7F2B41D05E4CE35CDB0728
:101870005FD51300511EC9B2443189005A4F69180F
:10188000013BDBB2002B34D1022799006918FF31EC
:101890004A7C7F2A00D1A4E053488446805C44B24D
:1018A000002C5BDA41265A1CD2B290002818FF3077
:1018B000447C019000967F2C02D06646365D0096EF
:1018C00066464020365D064236D1123C012C0CD8CB
:1018D00060460233DBB244339B005B5DC35C402057
:1018E000034202D08B7C013B8B741300CDE70023B5
:1018F000CAE708787F2803D0385C04397F28BFD92D
:1019000099006918FF31487C7F280ED02027265C7B
:101910003E4204D0344E305C0426304205D0887CF0
:101920004608B4460130604488740133DBB2934208
:10193000E6D10132D2B292E7009B5B0706D4009B4E
:10194000DB07D2D58B7CD8081B1ACDE7019B9B7B8C
:10195000591C9B08CB1801998B73C6E7214CA25CDC
:101960000824224210D00133DAB29300EB18FF337F
:10197000597C7F29B9D06046415C3942B5D00621F7
:10198000997405219973B0E738421DD018000130D1
:10199000C0B2020044329200525D002AF7D00133F7
:1019A0007F2A01D1DAB2A0E70F4CA25C3A42F9D00B
:1019B00080002818FF30827C5208013282748A7CB1
:1019C000520801328A74EDE71020024207D06046C7
:1019D0004A7B825C3A4202D08A7C023A8A740133A2
:1019E000E0E7F7BD28550300D754030070B50400A5
:1019F000FFF7D2FB2000FFF771FC23000022FC332D
:101A00000100DA601A61904226D02500224E11357D
:101A10003368FF35934203D02900204801F006FFC8
:101A20002000FFF7D9FD2000FFF734FC2000FFF76E
:101A3000FFFC2000FFF710FF2000FFF711FDC4227C
:101A40002B009200A1181A78502A07D97F2A08D0B3
:101A50000021134A134B1A60080070BD04338B42F7
:101A6000F1D13368002B02D00F4822F047F8200054
:101A7000FFF7BCFB3368002B03D029000B4801F0B3
:101A8000D5FE200023F056FC064B0949186822F0C9
:101A9000D1F941424141DFE75C0100207F5403005E
:101AA0008E54030004000020B4540300C454030007
:101AB00045540300F0B585B005001600080003ABDF
:101AC00002AA01A927F06DFC0398364FB84209D04D
:101AD000032807D00BF03AFFB060002804D1324849
:101AE0000EF082FC0123B3600198B84229D1002492
:101AF000B368A34200DC6C1E0298B84225D1B368DB
:101B0000002B47DD2800002C2ADA641901D5B368C0
:101B1000DC17002834DA401901D501204042B368AF
:101B2000002B00DA0130B368002B2DDDA04200DA73
:101B30002000013B706058425841C0B2346005B08B
:101B4000F0BD0BF003FF0400D6E70BF0FFFEB36817
:101B5000002801DBDA0F8018002CD6DB002B03DD18
:101B6000A542D6D22C00D4E7002BD2D0A54200D873
:101B70006C1E002804DA4019D4D501204042D1E778
:101B80008542D0D22800CEE7002BD2D0A042D0DDB3
:101B9000601CCEE7002C01DA0020B6E7002083426B
:101BA000E4D1C0E7D8EB0200C1560300F0B506004F
:101BB00085B017001B2805D10A9A974209D000204A
:101BC00005B0F0BD19281AD01C281AD00A9A0A9715
:101BD00017001A000B0011000A9A0192BA4200D9AC
:101BE00001971D000C0000230093009B019A934273
:101BF00009D10A9BBB4220D0E1D30120E0E71A269D
:101C0000EAE71D26E8E70295039401CD02CC0BF02C
:101C10004BFE002802D0009B0133E5E71B2ECED0FF
:101C2000039B30001A68029B19680EF0E5FB044B19
:101C3000C01A43425841C0B2C2E71A2EDDD1BEE7F6
:101C400088CB0200F0B51E0085B0039018680D0027
:101C500017000BF093FD7368019002930024022F8C
:101C60000ED90123B26829000BF048FF0400032FAE
:101C700006D029000123F26801980BF03FFF050010
:101C8000A54202D808480EF0AFFB039AA3000299C0
:101C9000D0580BF009FE002801D10134F0E70120F3
:101CA0006400204305B0F0BDDB560300F0B505002D
:101CB0008BB008680C0004F0D3FF049004A823F054
:101CC000E9FB00270126049B03900693069B1978E5
:101CD00000291BD1380003F0DFFE0122009007A984
:101CE00060680BF0EDFF079B089A05939B18019223
:101CF0000293022D1FD9A0680BF028FE002817DAE6
:101D0000089BC01814D52B480EF06EFB08000EF08F
:101D1000E3FD002806D006A823F0CEFB069B1B7827
:101D2000732B00D13000069B3F1801330693CDE79B
:101D3000059B181805900024BC4202D300980BB0F4
:101D4000F0BD049B012518780EF0C6FD002803D0D5
:101D500004A823F0B1FB05000598029A43199A42A2
:101D6000D1D3049B1B78732B09D0009BA6009E192E
:101D70000195019B0436002B10D164190AE029005B
:101D800004F044FB059B009A5D19A31C9B0005957C
:101D900001349850049B01330493CDE7049B05AABA
:101DA0001978039807F098FA019B7060013B019342
:101DB000DFE7C046F2560300F0B589B00391019207
:101DC0001E0004F04DFF049004A823F063FB0024E0
:101DD0000290B44201D309B0F0BD049B18780028EA
:101DE000F9D00EF079FD0125002803D004A823F0D6
:101DF00063FB0500039B019A5B199A4202D21B48C0
:101E00000EF0F2FA049B1B78732B10D064190E9B12
:101E1000A700DF19002D25D0049BAA005242197893
:101E2000BA5803AB029807F0B7FA013DF2E70E9BF0
:101E3000671CA400E058012205A90BF041FF069C95
:101E4000AC4200D92C0022000599039821F0DCFC5B
:101E5000039B2A1B18193C00002121F067FD039BFE
:101E60005D190395049B01330493B2E7F256030016
:101E7000F0B50E0089B0039001CE0F0023F032FBC5
:101E80004410210004A827F005F9069D2200002136
:101E9000280021F04BFD039B0096013B2A192900E5
:101EA0003868FFF789FF04A9024804F061FA09B015
:101EB000F0BDC04620E7020030B50C0089B0050037
:101EC0000222606805A90BF0FBFEA0680BF03EFD46
:101ED000002806DA069B0393C01802D508480EF0C6
:101EE00083FA0599069AEB1E8A18091820000C300F
:101EF00000902068FFF760FF024809B030BDC0467F
:101F0000F2560300D8EB02000139C9B2054B401864
:101F100080301970044A03781370044AD25C044B71
:101F20001A707047D72D0020D82D0020C2680300FA
:101F3000D62D00200131C9B2054B401880301970F0
:101F4000044A03781370044AD25C044B1A70704739
:101F5000D72D0020D82D0020C2680300D62D0020E8
:101F6000074B984206D9074B1818074B4118C91858
:101F700008787047054B18184118054BF7E7C0461D
:101F8000A4920000036703005B6DFFFF1757030077
:101F90000083FFFF030020228033F0B504001A7095
:101FA0007F2000224F255F2689B0A15C531C0A00C8
:101FB000DBB202406F2A28D90A003240E118803192
:101FC0000A701A007F2BF0D1BB4A137023001B222A
:101FD000FF331A70E4320192531CDBB203936B4659
:101FE000B6481B7BB6490370039BE31880331B780C
:101FF0000B705B2B0ED19B22019B0A700133DBB26D
:102000000370E254012009B0F0BD5F2AD6D90A005E
:102010002A40D3E72E2B13D10232D2B20270A2187B
:1020200080321278A4480270A648825C01200242E5
:1020300006D1019A0B701218D2B20192A3546FE22A
:1020400002209D4A13709F4AD25C104000D0ADE040
:10205000002A19D19948203203780A70E318803396
:102060001A70019B0133DBB201936B461B7903703D
:10207000019B782B01D8E25452E29B23019AA3548E
:102080006B461B7B0B70BDE716007F2552B2AE433B
:102090000E70002A03DB8C4A8C4B1A60B3E7413B7D
:1020A0008B4ADBB28B49D25CCB5C120213430293A6
:1020B000029B002101339BB218000293FFF750FFEF
:1020C0000306F5D50123012700267B4D2B7039002F
:1020D0000298FFF745FF7B1CDBB2282868D1002E51
:1020E00000D02F702B780133DBB20593059902984D
:1020F000FFF736FF059B0133DBB22928F5D17F2599
:10210000049304990298FFF72BFF049B28400133A6
:10211000DBB23D284FD16A46694B127B1870674B82
:1021200000261A706A467B1CDBB200931278624B61
:10213000039D1A700695631980331B7800990298E5
:102140000793FFF70DFF079B8342B1D1009B0599D1
:102150000133DBB20093009A6B1CDBB28A422CD1B4
:10216000002E01D0554B1D70039D013FFFB2524B15
:10217000390002981F70FFF7F3FE514E030600D599
:1021800004E14E4B7F2118704E4B1B5C1A005BB272
:102190008A433270002B14DA484B013DEDB21D70BA
:1021A000631980331B789842DFD081E74A4B7EE782
:1021B0001F0001268BE70493A3E71D000126069369
:1021C000B9E7307020281BD0232825D02E282CD00A
:1021D000262832D040284ED05E2856D02B285CD0FE
:1021E0003A2800D00EE1202629002000FFF78CFEBF
:1021F000334A137833401370B7D0304B1D78F3E770
:1022000029002000FFF780FE0023F356002B00DAA0
:102210004EE72A4B1D78A8E729002000FFF774FE3F
:10222000402233781342F4D142E729002000FFF71F
:102230006BFE33781B07ECD43AE729002000FFF748
:1022400063FE1022337813403370E2D11B4B1B78AE
:10225000E118803109783170482900D028E7013B26
:102260001649DBB20B70E31880331B789343432B82
:1022700000D01DE7CDE729002000FFF745FE04222E
:10228000337813403370C4D112E729002000FFF7E0
:102290003BFE33789B06BCD40AE7084B013DEDB208
:1022A0001D70651980352B78452BB2D010229343D1
:1022B000492B00D0FCE6ACE7D82D0020D72D00201C
:1022C000D62D0020C268030003570300040000203D
:1022D000486903002E690300A59200006B1C934A15
:1022E000DBB21370E31880331B7891490B70452BD8
:1022F00036D1A81CC0B2231880331B788D4E3370A2
:102300008D4EF656002E02DB884B1D783FE0107094
:102310000B70522BF8D0532BF6D0442BF4D04C2B0F
:1023200008D10335EDB21570651980352B78592B1E
:10233000EAD0BDE6462B00D0BAE6EB1CDBB2137048
:10234000E31880331B780B70552B00D0B0E60435B2
:10235000EDB21570651980352B784C2BD4D0A7E6DB
:10236000492B00D0A4E6AB1CDBB21370E31880331A
:102370001B780B704E2B00D09AE60335EDB215702A
:10238000651980352B78472BBED091E6069D6A46AD
:10239000009B0133DBB200931278664B1A70009BEE
:1023A000049A934200D19CE019000298FFF7D8FDEF
:1023B000614B7F211B5C5D4F1A005D4E8A435BB20F
:1023C00038703270002B08DA0135EDB263198033B2
:1023D0001B783D709842DAD06AE63070202816D01B
:1023E00023281ED02E2826D026282DD0402848D09D
:1023F0005E2851D02B2858D020263A2864D0252892
:1024000000D16BE74D4A4E4B00201A60FBE52900D6
:102410002000FFF78FFD0023F356002B00DB73E74E
:1024200046E629002000FFF785FD4022337813425D
:1024300000D069E73CE629002000FFF77BFD3378F8
:102440001B0700D560E733E629002000FFF772FD87
:10245000102233781340337000D055E73B78E118F1
:10246000803109783170482900D021E60133DBB290
:102470003B70E31880331B789343432B00D017E65F
:1024800042E729002000FFF755FD0422337813406E
:10249000337000D038E70BE629002000FFF74AFD33
:1024A00033789B0600D52FE702E60135EDB23D708B
:1024B000651980352B78452B00D125E710229343F1
:1024C000492B00D0F4E51FE729002000FFF732FD7B
:1024D000174A13783340137000D158E7134B1D7817
:1024E000F2E700257F272E0000990298FFF738FDBC
:1024F00003003B403D2B04D0019A0132D2B201923D
:10250000A354009A0132D2B201060BD5002E03D09B
:102510006946084A09781170054A1370069B0393AF
:10252000039A59E500920126DEE7C046D72D002028
:10253000D62D0020D82D0020C26803000D570300BF
:10254000040000208022044B52001A600123034A39
:102550001360034A1360704700E100E00C8C0040F8
:10256000008000408022054B5200DA67044BFF3A9E
:102570005A600022034B1A607047C04604E100E035
:10258000008000400C8C004070B5002501261E4BD9
:102590001E4C1D601E4B18601E4BE650C046FFF7D8
:1025A000E1FF1D4A1D4BE660E25002221C4BFF205A
:1025B000E5500433E25092180833E2508022C123E0
:1025C00012039B00E250053BFF3BE550C224402232
:1025D000144BA400195981430A4380211A510C3429
:1025E0001A5909061202120A0A431A51C022043467
:1025F000195981430A431A51802212041A60802219
:1026000052041A6070BDC046902E00200080004029
:1026100050010020FC0F0000701700004C05000066
:102620000405000000E100E070B51F4C1F4D636C15
:10263000002B0AD0002363641D4B1B689847A82316
:10264000DB00EA5800018018E850A36C002B09D089
:102650000023A364164B5B689847164B0001EA58A9
:102660008018E850E36C002B0AD00023E364104B81
:102670009B689847A923DB00EA5800018018E850BE
:10268000236D002B0ED000230B4A2365AB580B495A
:102690005B18AB500A4A1368063313608022094B5B
:1026A00012045A6070BDC046FC80004000800040AB
:1026B00008000020440500004C05000070170000D1
:1026C000902E0020FCE100E0F7B50191032823D80B
:1026D000134B8000C758C223124D9B00EF500123BB
:1026E00044192364A8230F210F4EDB009C46E358B6
:1026F000AE59921BD218D3170B409A1801990B4B65
:102700001211C150C1239B00EF50634600200132DB
:1027100012019619E650FEBD01204042FBE7C0467B
:10272000B8D20200008000404C05000008000020E4
:1027300003280BD8074B8000C158C223064A9B00D0
:10274000D150064A064BC25000207047012040423B
:10275000FBE7C046B8D202000080004045550200A9
:102760000800002010B5024B1B68984710BDC046FA
:102770005001002010B50024054AA358002B02D0B8
:102780000021A15098470434102CF5D110BDC0464B
:1027900040010020074A89008B58002B06D1885041
:1027A00080211800044A49045160704701204042CA
:1027B000FBE7C04640010020FCE100E005230200E9
:1027C00070B5094C094D2068434309489B189B008C
:1027D00018582B682260C0180F231940090128607F
:1027E0000EF0ECFE70BDC046540100203C010020FC
:1027F000C4D20200A839030000B5080006292ED86B
:1028000019F072FF040A10161B2128009A18E223FF
:10281000DB00D218107800BDC4329200D05C800674
:10282000800EF8E7C4329200D05AC004400EF2E79E
:10283000C4329200D0580003F8E7C43292009A18CC
:1028400090780009E7E7C43292009A18D078000720
:10285000000FE0E7C43292009A18D078F1E7024AFC
:10286000024B00201A60D6E76269030004000020D2
:10287000A83910B504000800062949D819F034FF1A
:10288000040A141F2A343F00E221A218C90052187A
:10289000137010BD3F210B401800C4329200135D2D
:1028A0008B4303431355F4E77F21C4329200194050
:1028B0001948135B890103400B431353E9E77F2158
:1028C000C432920019401059144B490303400B4382
:1028D0001351DEE70F20C4329200A2181901937839
:1028E00003400B439370D4E70F210B401800C43210
:1028F0009200A218D3788B430343D370C9E70F200B
:10290000C4329200A218D1781B0101400B43F4E7B6
:10291000034A044B1A60BCE73FE0FFFFFF1FF0FFD4
:102920008069030004000020F0B5D2B287B00F0028
:102930000593072113000B40013BDBB2042B02D9A6
:102940002C4D2D4C25608A4319020291002A29D171
:102950002A4BC55C2D09ED43EBB23D7801932C0069
:102960005B1BDBB204930826254B029A1B199B5C68
:102970005A00D2B25BB20392002B38DA1A2103203C
:10298000013EF6B2FFF71AFF039B002EF0D101348F
:10299000049BE4B2E318DBB2002BE4D1019BED1AF7
:1029A0003D701AE0D4431749E4B2CF5C0825144BBC
:1029B000029A1B199B5C5E005BB2F6B2002B0FDA29
:1029C00005210220FFF7FAFE013DEDB23300002D94
:1029D000F1D10134E4B2002CE8D1059807B0F0BD84
:1029E00039000120FFF7EAFE002FE9D0ECE70621CD
:1029F0000420C5E76D6903000400002019070000EA
:102A0000F86E0300537503000022F0B505000F00B7
:102A1000FF200F248BB008AB654EDA710100C43182
:102A2000890069188B781A09B25C2340120113439C
:102A3000CA788B7013071B0FF35CA2432340134328
:102A40001A09B25C234012011343CB700138E5D25E
:102A5000E223DB00EE5CB308F31ADBB20593554BBF
:102A60001B68002B0BD0E222C4218120D2008900F8
:102A700000013B00AA186918281800F01FFF002465
:102A80004823029403930194009481222B1912018C
:102A90009B181B78180004930723984320D008A99B
:102AA0002300049A07312800FFF73EFF0230C4B22A
:102AB000023FFFB2002F78D02B780393013EF6B28D
:102AC000002E47D1E2222B19D2009B181E78B308A2
:102AD000F31ADBB205930023029301930093D4E72A
:102AE000354B009A9C469A5C2300C4339B00EB183C
:102AF000997809090A4331498A5C0199069262462C
:102B0000DB78525C1907090F0A432C491B098A5CC0
:102B10002B490792029A8A5C07991343069A521826
:102B20002649C95C01238918FF2A00DC031CC91847
:102B3000882309061B06C918090F0020FFF73EFE6F
:102B4000039B013BDBB20393002BB7D10134E4B20A
:102B5000013FAEE7059B013BDBB20593002B02D1A1
:102B6000049B002B18D12200C4329200535D0099BF
:102B70009B069B0ECB18DBB20093535B0199DB04E1
:102B80005B0ECB18DBB201935359029A1B035B0E09
:102B9000D318DBB2029378E708A92300049A07311F
:102BA0002800FFF7C1FE04008CE70BB0F0BDC04663
:102BB0007C6A03005C01002048740300546C03002D
:102BC000F86D0300064B1B5C002B05D0054B185C11
:102BD0004843C011C0B27047034B185CFBE7C046C6
:102BE000A46D03001D6C0300DD6A0300064B1B5C33
:102BF000002B05D0054B185C4843C011C0B270478C
:102C0000034B185CFBE7C046A46D03005875030036
:102C10002D6B0300F0B5037A8DB004007F2B00D13B
:102C200045E10300070000250933FF330837099306
:102C300001953E787F2E00D086E000230693019315
:102C400006998B00E31803931A7A481C1B7BC0B2C9
:102C500006907F2B00D11DE19F49CE5C8D5C9F4982
:102C6000AE4200D0F3E08D5CCB5C0493039B597AB9
:102C7000019B5918CBB20193049BEB18DBB207936D
:102C8000023B1B06DCD4A826019B5D1BEBB205931F
:102C9000A82E00D0E3E0039BA8215F7A5A7B7F082F
:102CA0005208BB180293019B20009A18D2B2DF1B76
:102CB000FFF7A0FDFFB205003A00A8212000FFF7B2
:102CC00099FD2D1AEDB27F222B006DB2934308932C
:102CD000EB17E8185840029919F094FE2800CBB27F
:102CE0000299099319F0A8FD0025C3B20A93059F24
:102CF000029BDB19DBB20B933A0031002000FFF797
:102D000079FD0A9B01370B9A1818FFB2C3B297429C
:102D100000D1B9E0099AAD18029AEDB2AA420DD8D5
:102D2000AD1A20216A4652181278EDB252B2002A2A
:102D300000DAA7E0002B01D00133DBB23A0031000A
:102D40002000FFF795FDD7E7012E7AD12B00310047
:102D5000019A200022F0F9FBBA78614BA1789B1808
:102D60005B7830000193FB780293FFF72BFF3F2342
:102D7000E178034030000393FFF738FF7F22594B7F
:102D80009B5D1A40584B04929A5D0F231A4005929E
:102D9000564A925D1A400692554A925D1A40079231
:102DA0003F22544B9B5D08937B78EB18DBB20A9370
:102DB000039B134003937F23184083019C462A0002
:102DC0003F21C4329200135D0F268B4303990B43BE
:102DD0001355135B48490B4061460B431353049B47
:102DE00010595903454B03400B430598190C3140CA
:102DF000000113510843A21890701B0E0698B343AC
:102E00000799034309011E400E4320206946D670EE
:102E1000812209186319097812019A181170E222A7
:102E2000D2009B180299019A013552181A700A9B18
:102E3000EDB29D42C3D1099B0437BB4200D0F8E6F6
:102E4000FBE6022E88D12B00019AFF2181E72C4856
:102E5000AE4201D9C55C07E78D5C835C05E7049B46
:102E6000019A31009A18D2B22000FFF7C3FC059AEC
:102E7000050031002000FFF7BDFC079B2D1AEDB2C5
:102E8000029320E7013B58E70136F6B2AF2E00D09F
:102E9000FEE6D5E6023189006118019B4978591890
:102EA0006368C9B2002B04D02000FFF7ADFD0DB060
:102EB000F0BDE2228025D200A0186D001A00C432B5
:102EC0009200125D06789206D20EB21A0133027099
:102ED0000130AB42F2D1E7E78D6A0300546D030085
:102EE000487503007D6B03008C690300DC690300F7
:102EF0002C6A0300F87303003FE0FFFFFF1FF0FFA1
:102F0000CD6B0300F8B5124A0D00124B12499042E6
:102F10001AD0C4688C4203D0012428602000F8BD78
:102F2000406B002812D004689C42F0D106000024B7
:102F300047680836BF00F719BE42EFD2290001CE1C
:102F4000FFF7E0FF2418F7E70024E7E70400E5E7D0
:102F500018EC0200B0E402004D300000F8B50500A6
:102F60000C00AB68002B0AD0344AE168914206D0CD
:102F7000E358002B03D00422EB681A60F8BDA06B65
:102F8000002822D06B680022D900062304301943A0
:102F900001F0D4F8021E18D02B7C002B06D042681A
:102FA0000020EB6829680CF013FDE7E72B68181E7A
:102FB00007D02249E6688E4203D021498C4200D0D6
:102FC0001869EB6852682100EDE72B68002B14D1DB
:102FD000636B002BD2D01B4A1968194F1C00914219
:102FE00008D15E68184B0834F618B600A619B4422A
:102FF00017D32468BC42B4D1C0E72A7C002AE7D1A9
:103000000E4AE1689142E3D00D4A9442E0D018693B
:10301000EA6869680CF036FDEB681B68002BD7D0B6
:10302000ACE72168B94201D10434E0E72800FFF79A
:1030300095FFEB681B68002BF6D09FE74D30000032
:1030400018EC0200B0E40200FFFFFF3FF0B58FB0C4
:103050000E0005A9019202930700FFF753FF051D1B
:10306000AD00280023F010F90400002180C022F0F8
:1030700025FC2A002000103A1030002120F056FCD8
:10308000012E05D1029B1B680393042B00D186E01F
:1030900007AD08220021280020F048FC414A09A879
:1030A000002342600C2239008260C56003740993DA
:1030B000FFF754FF079804282ED10598029BC56896
:1030C000019A3100A847206120000AF057FB87428F
:1030D00065D10023344A390009A8089307930B935C
:1030E00009940A92FFF73AFF079B002B57D00198EB
:1030F000304336D107AA010025F03FFF05002B4BD6
:103100009D424CD0280024F076FE2949020029482F
:1031100009F092FB09F0A2FA0028D5D0019A3243B7
:1031200006D106AB012106970CF034FC0400CBE776
:10313000019B5C00A4190134A400200023F0A4F832
:10314000221F0390029980C020F05EFB711C039B3C
:10315000019A28680CF01EFC0400039823F0C3F8C1
:10316000B2E7019B5D00AD190235AD00280023F0E8
:103170008BF82A000700079B029903600393089BC2
:10318000083A4360083020F03FFB3A0001993000D4
:1031900025F0F3FE0500380023F0A5F8AFE7200086
:1031A0000FB0F0BD450200003D020000D8EB020068
:1031B000E0750300A0F50200F0B5146889B01700AF
:1031C000002C0ED1436803AD82686960596B03928D
:1031D000AC60EF602C74002905D111492800FFF77D
:1031E000BDFE09B0F0BD0F4B0A689A4210D14B6882
:1031F00008310E000193019B9C42EED0A300F158D0
:103200002800FFF7ABFE3B68002BEAD10134F2E760
:103210002800FFF7A3FE3B68002BE2D1DDE7C046A4
:1032200018EC0200B0E4020010B54A68014922F02F
:1032300054F810BDDA760300F0B58BB004000E0030
:10324000150000210822684620F070FB142200219E
:1032500005A820F06BFB202307936B460594089389
:10326000002D10D1154B216805A80693FFF776FEB7
:103270000221009F042F13D12A00310020690AF097
:10328000EDFC0BB0F0BD042D01D10D4BEBE793230A
:1032900021689B0005A80693FFF760FE0321E8E77D
:1032A000381EEED002AB00220294039604950CF077
:1032B00071FB042DE5D00348E3E7C046330200006C
:1032C00039020000D8EB0200F0B51F4B8BB0820032
:1032D000D35803AF0C0008220021060038000193E8
:1032E00020F024FB019B05AD6B601423AB60002331
:1032F000280021680594EF602B74FFF72FFE0398D8
:10330000042805D1216930000CF0D2FA0BB0F0BDD1
:1033100000280AD0210025F028FE022EF6D10AF05E
:1033200041FB440001202043F0E7022E01D00020A1
:10333000ECE7064B216828006B60FFF70FFE3B6847
:10334000002BF4D16400EDE7B0D402003502000098
:10335000F0B506008BB00C00171E3CD0294B08229C
:10336000002103A8019320F0E1FA019B05AD06932B
:103370000823079303AB08930023216828002B74CC
:103380000594FFF7EBFD039B002B08D1002F06D11E
:103390001C4B216828006B60AF60FFF7DFFD0398CE
:1033A00004281CD120690AF0E9F9174BC2689A4237
:1033B00013D1002F07D02368586822F08BFB01003F
:1033C000300021F0C2FE80223A43216930000AF029
:1033D000EDF90BB0F0BD0D4BC1E73A00F5E7002861
:1033E00005D0210025F0C1FD00220100EEE72000FC
:1033F00024F001FD230002000549300021F06DFF9B
:10340000E7E7C0464A020000F9C600004D0200008E
:103410008F75030070B504000D000B4921F095FE77
:103420006968002220000AF0C1F90849200021F053
:103430008CFEA968002220000AF0B8F90449200097
:1034400021F083FE70BDC046987603003E54030011
:10345000E576030010B5C468002C06D14268044923
:10346000044809F0E9F909F0F9F8A04710BDC04691
:10347000A1760300A0F50200F0B589B001AE04000A
:1034800008220F003000002120F050FA104B03A852
:1034900043600025242321688360C660057403947B
:1034A000FFF75CFD019B1800AB4208D0042B08D14C
:1034B00020690AF063F93900436A2069984709B026
:1034C000F0BD32002900280025F057FDF7E7C0467F
:1034D0003E020000F0B5154B89B016008200D558A9
:1034E0000C000C2200210700684620F01FFA182368
:1034F00003A84560836000256B462168C360039480
:103500000574FFF72BFD009B042B06D132002169C7
:1035100038000CF071FF09B0F0BD181EFBD06A46F0
:1035200029000120029625F028FDF4E728D30200A7
:10353000F0B517008C228DB00400920007A84260FD
:1035400003931022002305AD0E0021688260C56040
:10355000037405936B600794FFF700FD059800283E
:1035600009D1200024F047FC0B4902000B4809F068
:1035700063F909F073F8039B042806D13A0031007F
:1035800020690CF007FA0DB0F0BD009332003B004B
:10359000696825F0C9FEF6E7C4750300A0F50200CE
:1035A000F0B50D0085B001A907001600280002AA99
:1035B00022F03EFC0023019902988B422CD13C2042
:1035C00022F074FE2A4B019A03602A4B04008360A8
:1035D000294B4760C360294B0361294B4361294B49
:1035E0008361294BC361294B0362294B4362294BF9
:1035F000C362002A06D0029B1968096B0163012A85
:1036000018D94563A66303A92000FFF77BFC0128B6
:1036100013D921480DF0A8F89A008258D468002CDC
:1036200006D152681D491E4809F006F909F016F83E
:103630000133C2E71B684363E4E7A36B0022181D54
:10364000184900F07BFD051E0ED0032243681A4086
:103650000AD11968144B4968994205D1031D01210B
:10366000124821F0DCFF6860200005B0F0BDC046C4
:1036700074D40200513300004D3000003135000099
:10368000C9320000D53400009355020039320000E1
:1036900079340000C75602006A76030041760300C1
:1036A000A0F502002E120000AD020000FCD30200C3
:1036B00037B50D001C0000231100009301220333D5
:1036C000280004F0E5FB012D04D0032D06D00748A7
:1036D0000DF04AF820680AF051F83EBD206802F06B
:1036E0009FFEA2686168FFF75BFFF6E7BE76030006
:1036F0001FB5064B0A0001934B6802938B680100CB
:1037000001A803930CF0F0F905B000BD38D4020015
:10371000F8B50D0003261449144AA8421ED0030030
:1037200033401DD104688C421CD1406B002816D058
:1037300003689342F1D1040047680D4B0834FF1829
:10374000BF00E719BC4201D32068E4E729002068E4
:10375000FFF7DEFF002802D10434F3E70120F8BDB3
:103760000020FCE71800FAE774D40200B0E402007D
:10377000FFFFFF3FF0B585B00500019108008B0702
:1037800017D10B68134A93420BD10123029301AB6B
:1037900003930024029E039FB4420DD10E4805B04E
:1037A000F0BD0E4A934204D103AA02A922F040FBC5
:1037B000EFE70B480CF0D8FFA300F958094B9942EA
:1037C00006D02800FFF7A4FF002801D10134E3E769
:1037D0000548E4E774D4020080CB0200B0E40200A4
:1037E0000876030018EC020088CB020010B58307AE
:1037F00003D1054B02689A4202D004480CF0B4FF92
:10380000FFF7B8FF10BDC04674D40200A1750300D5
:10381000054B10B59A6C002A04D00022986C9A646B
:1038200008F01CFF10BDC046942E002073B50600A2
:10383000194D0C00280020F061F93100174820F0E4
:10384000D7F8174820F05AF9164820F057F9FF2307
:103850009B00E61821787F2901D0B44206D12800C8
:1038600020F04CF9104820F049F973BDA378502995
:103870000CD80E4A505C0E4A525C01936378009358
:1038800003000C4820F0B4F80434E3E762780A48F7
:1038900020F0AEF8F8E7C0469A770300C777030038
:1038A000CF7703005877030076770300675603004D
:1038B00016560300F077030013780300F0B51D00DF
:1038C0008BB007901B481600089120F017F92900CB
:1038D000194820F08DF8194820F010F9184820F008
:1038E0000DF90024AC4204DB124820F007F90BB0BC
:1038F000F0BD089B375DA0000799181803788278FF
:10390000095D049707689B063F037F0E0397C778FE
:103910009B0E09933B09029300883F07C004400EA9
:103920003F0F019012090097099B064820F060F8AC
:103930000134D7E79A770300E77603001477030092
:103940004677030078770300F8B5050010200C00D7
:103950001F00160022F098FC054B44608460A419F7
:103960000760C4606B60034B2860AB60F8BDC04665
:103970006D57020083570200F0B5486887B00F000A
:1039800009F0E4FF041E02DA00200CF02DFDBB68F4
:10399000164A01939D186B1E9D41010002A825F057
:1039A00079FB049E2200002130001FF0BFFF386821
:1039B000EDB2C3070AD433002200290024F0B4FA80
:1039C00002A90B4802F0D4FC07B0F0BD4310200060
:1039D000042C00D904200749019F00228F4200D007
:1039E000221AB218290022F0F5FCE9E70AE8FFFFE5
:1039F00020E70200F6170000F0B50C0087B00122A6
:103A000003A960680AF05CF9A3681349039A8B4222
:103A10000DD10126049976424C1E01911419049986
:103A200000200D00002D05D124F0CDFA0DE014008A
:103A30000126F4E7094F013DB84208D908481B1890
:103A4000581E8341D8B224F060FA07B0F0BD277841
:103A500000023843A419E5E7F6170000FFFF3F0016
:103A60000AE8FFFF70B546007408051C211C201CE5
:103A700019F07CFF002829D11649201C19F02CF8D8
:103A800000281DD1002D0FDA002E06D0FF23DB0504
:103A9000EB189C22D205934209D8281C19F07EFF0E
:103AA00001244000204370BDEB0DDB05F1E70AF077
:103AB0008FF90400291C043025F0E5FF2000F2E70F
:103AC0000549064824F057F908F0C8FD04480CF0F1
:103AD0008BFCC046FFFF7F7F4478030074F4020034
:103AE0005D780300F0B50C00002585B011002000C2
:103AF0001E00009502232A0004F0CAF90120AC42FE
:103B00002BD0844231D13068204226D10323034098
:103B1000AB4203D11C4A016891421ED01B4A0240AD
:103B2000062A06D0002B0DD10268194B92699A42E1
:103B300008D103A903F0AAF800231A00039904F09E
:103B400047FA0AE0032302001A40022A07D1FF22A3
:103B5000D20580189843FFF785FF05B0F0BD09F046
:103B6000F5FE012340001843F7E703A9306803F08E
:103B70008DF804007068039F09F0E8FE2B00020036
:103B800039002000DBE7C0460CD50200070080FFAB
:103B900035720000F8B51F000B4B1500591801399C
:103BA000097818F0BFFD00260400B74204D00130A8
:103BB000032118F0B7FD0600281E01D020F07EF981
:103BC0000334A4192018F8BD34780300F0B58DB083
:103BD0000A9214AA147815AA127806000F00079208
:103BE000DA0748D55D100023002D01DA2D236D4240
:103BF0000693139A079B12992020FFF7CBFF3A6890
:103C00000590904204D922F03FFB059B30603B6059
:103C100000213768059BFB185A1E11708D4246D053
:103C20000A3C099208920B941299280018F000FEA1
:103C30000C002800129918F075FD23003033092C70
:103C400001D90B9B1B19089A541E2370079B002B4C
:103C50004BD000282ED0A7422CD2099B1B1B032B34
:103C600006D16B461B7F013C2370A74222D20994E8
:103C700005000894D8E79A0712D1244A196891429E
:103C80000ED1079A02940392139A39000192129A64
:103C900000920A9A24F00FF9040020000DB0F0BD44
:103CA0000023326813700A9A34681360F5E79C1E8B
:103CB00030232370139B002B06D0180020F0FEF851
:103CC0000023201A874217D3069B002B05D0BC4245
:103CD00003D96B461B7E013C23703368059A9B1801
:103CE0001B1B0A9A013B1360D7E7A742E2D20028C8
:103CF000BED1DFE7C2540133139AD25C002AF9D156
:103D0000069B0400002BE4D1E7E7C0460CD5020077
:103D10001300144A10B50400934204D1012220007C
:103D20000CF06AFB10BD104A934201D10322F6E762
:103D30000020072CF6D10D4A1A40062A0ED09A0709
:103D4000F0D11A680A4CA24208D00A4CA24205D00F
:103D5000094CA24202D0094CA242E3D10A0007203A
:103D60001900DDE780CB020088CB0200070080FF4E
:103D7000D0FA020020E70200B0E40200F80E0300CF
:103D8000F8B503780400002B1BD0402B1CD1012078
:103D9000002319001D001E002278002A3CD10132A8
:103DA000002E0FDC002D0DDC00290BDC033B9342C1
:103DB00008D9013C23785C2B04D0002801D00A2BC1
:103DC00000D100221000F8BD3E4921F05AFD002824
:103DD000DDD13D49200021F054FD0028D7D13B49D9
:103DE000200021F04EFD0028D1D13949200021F0DA
:103DF00048FD0028CBD13749200021F042FD0028A2
:103E0000C5D13549200021F03CFD0028BFD1334900
:103E1000200021F036FDBBE7272A12D1002B01D06C
:103E2000032B09D16278272A06D1A278272A03D149
:103E30000234243AD31A02E00122012BFAD90134C8
:103E4000AAE7222A12D11A000427BA430AD16278BB
:103E5000222A05D1A278222A02D102343A00E9E7C7
:103E6000002B01D0022BEAD10222E3E75C2A0BD11E
:103E70006778272F03D0222F01D05C2F04D11A009E
:103E8000571EBA41A418DAE7002BD8D15B2A12D00A
:103E900006D8282A0DD0293A57425741F61BCEE7BB
:103EA0007B2A0AD07D2A0AD05D3A57425741ED1B42
:103EB000C5E70136C3E70135C1E70131BFE7013985
:103EC000BDE7C04693AA0300827803008878030008
:103ED0008C780300FE92030090780300BE75030007
:103EE000F0B58BB0079343180390049201930093AD
:103EF000009B5C1E039BA34201D9009310E0207835
:103F00000CF0DEFC002801D00094F1E720780CF0E2
:103F1000E3FC0028F8D123785F2BF5D02E2BF3D0CB
:103F20007E4B1D68009C019B9C4243D3009BE71A7B
:103F3000019B9C4222D20026AB689E421BD2F3001A
:103F40000293EB68F2009858002838D0042836D045
:103F500009A902F09BFE099B01009F422FD13A0064
:103F600000981FF0DDFF002829D1EB68029A9B180A
:103F70005868002825D100200BB0F0BD0024260091
:103F800002940194AB689C4237D3019B002B66D10D
:103F9000009B039A9342EED1614C3A002100180035
:103FA0001FF00CFC0028E6D1079BE41907301C60C9
:103FB000C01BE1E723782E2BB8D00134B3E70136DC
:103FC000BAE7032318420DD10268564B9A4205D135
:103FD00025F02AFB0500631C0093A3E75249030068
:103FE0008A4202D009F0CAFB03009D6B002DC2D0AB
:103FF0004E4B2A689A42EED0BDE7EA68E300985833
:1040000000281CD004281AD009A902F03FFE099B01
:10401000059006939F4212D801003A0000981FF0C5
:104020007FFF00280BD1029B002B12D03B009E4249
:1040300002D3069A934204D9019B013301930134C0
:10404000A0E7029AD15C059AD25C914205D1013376
:10405000EDE7059B069E0293EEE71E00ECE7019B51
:10406000012B0FD0BE420DD8002340260193019BA7
:10407000AA6893420CD32E49049821F066F80120D7
:10408000404279E7029B079ADB191360F01B73E744
:10409000019BEA68DB00985800283AD0042838D001
:1040A00009A902F0F3FD099B039005939F4230D8C4
:1040B00001003A0000981FF033FF0290002828D139
:1040C00033000F220F33DC171440E41824112401AD
:1040D000A41B012C00DC1034059A33199B18402BCB
:1040E0000DD9039A1349049821F0F7F8099E10E0BE
:1040F0001149049821F029F8029B01330293029B95
:104100009C42F5DC0399049821F01FF8099BF618EE
:104110003619019B01330193A9E7C046942E002074
:10412000767803003812030074D4020098E6020087
:10413000C37803007E78030054E50300F0B587B030
:104140000092027804000F00930703D5009B002B18
:1041500000D0F5E0D307DB0F0ED07A4B3B40062BA7
:1041600043D003233B4003D177493868884203D0CA
:10417000009B012B00D0E3E0019353075FD5236838
:10418000A568DE08F600AE19B54230D3009B012BBE
:1041900000D0D5E02368D9086368994210D1043172
:1041A0006160A068C90022F08DF823686268DB08AE
:1041B000D21ADB00A060D200C01800211FF0B6FBAD
:1041C00007212368DD086A1CD2000B4013432360DB
:1041D000A368ED005D195B4B2F601F40062F21D0B7
:1041E00001222378934323701CE00123C4E728684D
:1041F00087421AD1009B022B14D129002368721B1D
:10420000D210083B013A6F6828002360D2000831C1
:104210001FF03CFB2368DD08A368ED005D19002357
:104220006F602B60280007B0F0BD019B002B04D10C
:10423000390009F039FB0028DCD10835A4E76368B0
:10424000002B05D1009B012B7AD1200000F07EF8D5
:104250003C4B3B400593062B27D1F80821F030FC5E
:1042600003906168039818F0E3FA00260491049B18
:104270000293029BDD00A3685D19286800281BD10A
:10428000009B012B5CD107212368DA080132D200A0
:104290000B4013432360002E00D0350000236B60D9
:1042A000059B2F60062B9BD1BCE7390002200BF049
:1042B000FFFA43100393D4E704281DD1002E00D148
:1042C0002E0002986168013018F0B2FA049B029146
:1042D0008B42CED1009B012B32D1002E2CD02368F3
:1042E00035000833236000237360059B3760062B7D
:1042F00098D02378009A75E7874212D1009B022B51
:1043000000D08FE723680298083B23600130616882
:1043100018F08EFAA368C900CB58002B0AD12B6085
:1043200080E7019B002BCCD1390009F0BDFA0028B1
:10433000C7D0E3E70423F2E7200000F007F890E796
:1043400000256FE7070080FFD0FA0200F7B5436849
:10435000040001935A1C002317495D5AAA4206D94A
:104360000233442BF9D15508AD18433B1D43E800F7
:10437000A76821F09BFF0723226865601340012294
:104380003D000026236013432370A060019B9E42E2
:1043900003D1380021F0A7FFF7BD2968002907D015
:1043A000042905D001222000FFF7C8FE6B68436096
:1043B00001360835EAE7C046CC4D0300F8B50500E4
:1043C00000230768866812497A1C585A824206D927
:1043D0000233442BF9D150088218012010430024E5
:1043E00028606C60800021F061FFA860BC4203D1AE
:1043F000300021F078FFF8BDA300F158002905D066
:10440000042903D00122280021F096FA0134EDE7B7
:10441000CC4D0300074B5B69002B01D1180006E06F
:104420005A68824204D8801A04308000C05870470D
:104430001B68F1E7942E002070B5144D04006B69E1
:104440009868DB68834215D30230C00021F029FF51
:104450006B69002803D1986840000BF0AFFF5A68E1
:10446000D96803609B6852185B0083600023426038
:10447000C36068616A69D3685068591C04339B0043
:104480000138D16040189C5070BDC046942E002069
:10449000074B4118884204D3D8B2002800D101301C
:1044A00070475A01D318027801305340F2E7C046F2
:1044B00005150000034B044A5A6100229C331A6020
:1044C0007047C046942E002054D50200F0B585B048
:1044D00001900E00FFF7DCFF144B02905C69002C8A
:1044E00001D120001EE0270010373D00E3689B004B
:1044F000FB180393039B9D4201D32468EFE72868D0
:10450000029A03789A420FD143789E420CD102302E
:10451000320001991FF052F9002805D1ED1B6068A7
:10452000AD10281805B0F0BD0435E3E7942E002047
:10453000F0B585B003900191FFF7C8FF002862D164
:10454000324D019B2F009C37DC1C3B68002B18D0A0
:104550002E002F4AA036126831680292A2188A42B1
:104560000FD902006118180021F0B9FE029000284E
:1045700022D1274B02001968386821F0B0FE029B57
:104580003B602B009C331B68002B20D12600802C25
:1045900000D2802630002F0021F083FE9C37386047
:1045A00000280DD1200021F07CFE26003860002874
:1045B00006D120000BF002FF33681B193360E0E7DF
:1045C0002B00A0331E602B000022A4331A602B00A6
:1045D000A4331A689C352D68A41801990398AD1866
:1045E0001C60FFF755FF6B461B7928706B70019AB2
:1045F000A81C03991FF008F90022019B2800EB1862
:104600009A70FFF719FF05B0F0BDC046942E002048
:10461000382F0020F7B51D001600002307000360A7
:104620000B6033602B60174B00915C69002C02D04B
:10463000154B9C4204D133682A68D3182B60F7BD10
:104640003B6801333B60E268009B94461B68009A1C
:104650000193634413602200E36810329B00D31877
:104660009A4207D3200008F0BDFD2B682468181873
:104670002860DBE702CA30684978033009183160E6
:10468000EEE7C046942E002054D502000C4B70B5C6
:104690005C69002C02D00B4B9C4200D170BD2600FF
:1046A000E36810369D007519AE4201D32468F0E727
:1046B00004CE05490232054820F00FFEF4E7C0465B
:1046C000942E002054D502009A78030094D1020061
:1046D000F8B5070008680C0026F0C2F8050060680D
:1046E00009F072FA0600022F0AD9A06809F02EF923
:1046F00002003100280021F0FAF923F049FCF8BD4E
:10470000004AF6E740420F0010B5040024F0FFFC19
:1047100026F01EF901280BD00649200024F012FDD6
:10472000200024F0F4FC26F013F9022800D0002029
:1047300010BDC046E19C0300F0B59DB000AF0C6811
:10474000032835D9CB68FB60042835D00D690020DB
:104750006D102BD41C232000F91802F097FA786111
:10476000002D5AD0964C9749606801F0BDFC0600B8
:104770006068002294490430FFF7E0FC1823FA181F
:10478000D1180400300002F081FA3B6B013D0100BA
:10479000C318002C05D1994203D2013B1A782E2A66
:1047A000F9D1013D0ED299420FD188480BF01CFE81
:1047B000874B0025FB60CDE70025CBE7013B1A784E
:1047C0002E2AEED09942F9D3EBE7FE695C1A250058
:1047D000002E01D0751C65192B006A460E33DB08CC
:1047E000DB00D31A9D46220018003B611FF00CF835
:1047F000002E08D02E233A69601C135510187969D1
:1048000032001FF001F829003869FFF791FE0624F5
:104810003B69C0000443FD617B61200001F000FEA4
:104820000CF080FF061E15D02E2178691FF094FA37
:1048300000280BD0664BFA689A4207D17B69C11AEF
:104840001800FFF775FE0CF06DFF06003000BD4646
:104850001DB0F0BD182318200125FA18D2183818F9
:10486000103B4021C01824F01DFC7E603E61FB69B6
:104870009D4205D9564BFA689A42E7D17E68E5E732
:104880009D4204D07B695B5D2E2B00D08DE029001A
:104890007869FFF74DFE7B6A3860002B18D12A003B
:1048A0007969083318203818C01824F0C6FB18227C
:1048B0000823BA18D018FFF727FFB860BB68002B91
:1048C00014D13A684349444807F0B6FF07F0C6FEE2
:1048D00018220823BA18D0182F210BF087FF3B6944
:1048E0003969EA1A7B6959180823DBE738680CF044
:1048F00019FF041E43D138680CF0E2FEFB69040086
:104900009D4213D1354BFA689A420FD1BB68012BF7
:104910000FD0334A2B49406821F023FB182208238B
:10492000BA18D118200021F014F928E0BB68012B37
:10493000F4D10022796AB86A01F050FD29490200D9
:1049400020000BF0F9F87B6A1822BB600823BA1824
:10495000D0182F210BF04AFF18220823BA18D018BC
:10496000214924F0EFFB18220823BA18D01824F0AC
:10497000CEFB25F0EDFF022819D0BB687B62002E2C
:104980000CD07A693B699446E91A63441800FFF732
:10499000CFFD2200010030000BF0CEF87B68002B29
:1049A00000D17C6026006B1C3B6101355FE718225B
:1049B0000823BA18D118200021F0CBF8DDE7C04653
:1049C000942E0020261200003E120000A59C030039
:1049D000D8EB0200C49C03001CF2020080CB020052
:1049E0001612000047020000D99C030007B50449D5
:1049F0006A460BF047F80098431E9841C0B20EBDBE
:104A00004702000080235B051869034B1B78434372
:104A10008020C002C01A7047DA2D002080235B0579
:104A20001869034B1B7843438020C002C01A7047AB
:104A3000DB2D002070B5084DC4012B68002118192A
:104A400020F0F9FA2868054B00197F3000781B78B0
:104A50008342F0D270BDC04658010020D92D0020FD
:104A600010B5C3790400002B08D0064A0379817978
:104A70001068DB01C018013020F0DDFA002323723A
:104A800010BDC0465801002010B5124B01001A6835
:104A90004379DB01D31818007F300478FF2C08D14C
:104AA0000879C00112185278FF2A0FD088799042F5
:104AB0000CD08A799B180132D2B258787E2A01D064
:104AC0008A7110BD00234C718B71FAE701204042BE
:104AD000F7E7C0465801002070B5F8248025A402ED
:104AE00023786D054D2B4CD12B698020E41A2B695E
:104AF000C002E41A2969001B17F014FE2B4B2C4945
:104B000018702B69E21852185D421540294B2A4A49
:104B10002A49D31A80225B18520511699D4234D369
:104B20008020C002401B17F0FDFD254B641B187050
:104B3000E411244BE4B21C70A12001230025224A79
:104B400022491360C0004D604B68002BFCD0135805
:104B5000DBB2A342F7D21E4901330B70012353602D
:104B6000FFF750FF037805001A4CFD2B0FD180236F
:104B70005B051869184BC009C018C00128182060CF
:104B800070BD80242B69E402AFE76D18C5E7FFF71D
:104B900045FF0378803DFD2B01D12560F0E7FFF74D
:104BA0003DFFFD2120F047FAF7E7C046DB2D00204E
:104BB000FF87FFFF0000002018010020A0E903008C
:104BC000DA2D0020D92D002000D00040FCD000407C
:104BD000DC2D002058010020FFFFFF01F7B5254B19
:104BE000254F1A78254B14001B7839680133E001F2
:104BF000405CFF2839D00134E4B29C4200D101244A
:104C00009442F4D1802300265B051B69DB090093E5
:104C1000E30101933B68E2019D182A782800534282
:104C20005341F61820F01DFA0023002815D1134B2C
:104C300001341B78E4B201339C4200D101240D4BB6
:104C40001B78A342E4D1072E11D920F094FFC6E7C8
:104C5000DA01AA5C002AEAD10133009A9342F7D123
:104C60003868019BC01820F0F2F92000FEBDFF2437
:104C7000FBE7C046DC2D002058010020D92D002084
:104C8000F7B507000D0001240E4B1B7801930E4B66
:104C90001E68019B9C4202D9FF242000FEBDE10159
:104CA00071180B78FE2B09D18B78AB4206D10331FA
:104CB0002A0038001EF082FD0028EED00134E4B254
:104CC000E7E7C046D92D00205801002010B5054A5D
:104CD00003791068DB01C01881780022033001F0ED
:104CE0007DFB10BD58010020F0B585B002900D008D
:104CF00016000393782949D8FFF7C2FF0400002E5D
:104D00003CD0FF2801D0FFF795FEFFF767FF0400B6
:104D1000FF2803D11E491F4824F06BF91E4FC00124
:104D20003B680190FE21181820F085F93B68019A34
:104D3000E9B29818023020F07EF93868019B2A0009
:104D4000C01803300299FBF7D3FA0C2021F09CFA2B
:104D5000039A0300002A17D0104A1A600E4A1C71E9
:104D600012685C71E4011419A278DE7102329A7142
:104D700001221A726A46127B5A7202E03300FF283F
:104D8000E3D1180005B0F0BD054AE6E70023F8E7D7
:104D9000E59C030038F4020058010020E8CB020033
:104DA00094CC020007B501A901F070FF0199FFF74B
:104DB00067FFFF2803D10449044824F01AF9FFF7DC
:104DC00039FE03480EBDC0464253030038F40200CA
:104DD000D8EB0200F7B50192027A05000091002A93
:104DE00002D125480BF000FBC479002C06D1234AE0
:104DF00017680279D201D25D002A04D1092201206C
:104E00001A604042FEBD69797E22C9017918080006
:104E10007F30AB790078D21AFF2809D12879C001F8
:104E200038184078FF2819D0C01A824200D90200F1
:104E30000198061B964200D91600002E19D0009A40
:104E400001331019C91832001EF0DEFCAB799B1932
:104E5000DBB27E2B04D0AB71A419D4E70022E7E7C4
:104E60000023AB716B79DB01FB187F331B786B710F
:104E7000F2E72000C6E7C046FB9C03005801002073
:104E8000F0B585B00393037A04000192002B02D1A0
:104E90002F480BF0A9FAC379002B34D02D4A03799F
:104EA0001268DB019B5C002B2DD0019B02910093CB
:104EB000009B002B2CD07E22A379D71A009A974210
:104EC00000D917006079234E0133C001C018336840
:104ED0003A0018180299FBF70BFAA379DB19DBB239
:104EE0007E2B33D10023A371FFF778FE0500FF2846
:104EF00011D12079FFF79EFD002323721C23039A12
:104F000013601D3B03E00923039A13600A3B0193DE
:104F1000019805B0F0BD60793368C0011818290008
:104F20007F3020F088F83368ED015819617920F05E
:104F300082F862793368D2019B187F331B786371E2
:104F4000029BDB190293009BDB1BB0E7A371F7E721
:104F5000FB9C030058010020002170B5080024F0DC
:104F6000E8FA012405000C4B1B78A34201D228006B
:104F700070BD0A4AE3011068C0180378FE2B08D1FF
:104F800081780022033001F029FA010028000BF09B
:104F900051FF0134E4B2E6E7D92D0020580100208A
:104FA00073B501A901F072FE0199FFF769FEFF28B0
:104FB00003D10E490E4824F01CF800257E260D4B27
:104FC0001C68C301E31859789B780233DBB2C20135
:104FD000A2187F321078FF2804D1C81A401922F095
:104FE000D7FF76BDF31AED180023F0E74253030014
:104FF00038F40200580100201FB5034A034B22F089
:10500000E7FB05B000BDC046894A0000614A0000C8
:1050100070B506000D00002814DD002907DD1548D5
:1050200017F00AFC0124864209DC002407E0010095
:10503000C020000617F000FC01248542F5DAE4B236
:10504000200070BD002907DDC020000617F0F4FB2A
:1050500001248642F3DBE8E70024A042F0D00100FF
:10506000044817F0E9FB0123854200DB231CDCB276
:10507000E6E7C046FFFFFF3F014BD8607047C046E0
:10508000942E0020034B82B0D86801ABC01A02B046
:105090007047C046942E0020014B18617047C046EF
:1050A000942E002010B54E21024822F05DFE07F03C
:1050B000D5FAC046B0F4020007B5054A01ABD16885
:1050C0001269CB1A9A4201D8FFF7ECFF07BDC04620
:1050D000942E002010B50400080020F0EBFD030022
:1050E000002C03D0012C06D0002003E00348002B45
:1050F00000DC034810BD40002043FBE788CB0200E2
:1051000080CB020043684B6083688B60C3680800F3
:10511000CB60014B0B6070473CE40200F0B50E0021
:10512000002785B0110003901D00012203233000E9
:10513000009702F0ADFE102021F0A6F8039B0400BA
:10514000036001234760C36028689E4205D108F0D0
:10515000FDFBA060200005B0F0BD08F0F7FB60602B
:10516000686808F0F3FBA060032EF3D1A86808F08C
:10517000EDFBE0600028EDD101480BF035F9C046A9
:10518000189D030070B50D004A688B68084904003B
:1051900020F0A3F8EA68012A04D1064920001FF094
:1051A000D4FF70BD0449200020F097F8F9E7C0460D
:1051B000229D030043B003002F9D030030B504007F
:1051C00087B00D000020042A25D1200020F072FDB8
:1051D000AB0722D1184B2A689A421ED103AA290094
:1051E000FCF768FC102021F04FF8144BE2680360D4
:1051F000039B616853435B184360049B61680193A0
:1052000053435B18059983604A43C260002902DA60
:10521000E2689B1A836007B030BD002301002A00BA
:10522000206808F06BFCE36858436368C3180120EA
:105230005B001843EFE7C0463C0D030000E40200AA
:1052400010B50C0008F09AFA006B00280ED0E307A6
:1052500002D50368002B09D0A30702D54368002BB1
:1052600004D0630706D58368002B03D102490348A5
:1052700023F0BFFE10BDC046359D030038F4020088
:10528000F0B50D008DB00400012128681700FFF76C
:10529000D7FF0600012C22D12B68012118000493AE
:1052A000FFF7CEFF80210700490008A823F0E1FEA8
:1052B000802400230A9E6400039307AB2200310080
:1052C00004983D68A847431C28D107980B2800D0B4
:1052D000ADE0039B002B34D159480DB0F0BD686898
:1052E00008F034FB030003900133D5D00124337B55
:1052F000234200D184E00027039E08A8310023F058
:10530000B8FE0594002E70D0310008A823F0F1FEFD
:10531000011E1ED14B494C4823F06BFE002810D0D3
:10532000039B1B180393844202D9241A3618C4E73E
:10533000802108A8490023F0C9FE802406006400EB
:10534000BBE7039B414809933B7BDB0776D440488E
:1053500074E000230093320007AB286820F0D2FCF1
:10536000079B0400002B0ED008A8310023F025FF76
:1053700007980B285BD1099B0393002B35D108A814
:1053800023F099FEA8E7864229D80A9B38000493A7
:1053900002239C46099E049B059ADB5D59B20029B5
:1053A00012DA19001F246246A143C0290CD019004B
:1053B000103C0322A143E02906D004329343F03B82
:1053C0001A00511E8A410432D719B74212D8039BE2
:1053D0003800013B0393B742DDD31E0092E7311A38
:1053E00008A823F0EAFE002CCFD1184808A900F045
:1053F000BFFF72E7F643039BF618F619070081E733
:10540000039908A823F046FE009707AB039A0A9970
:10541000286820F077FC079B002B0AD008A823F00F
:105420004AFE079B06480B2B00D156E718000BF0ED
:10543000BDF9337B09900548234288D008A9D6E7F7
:10544000D8EB0200549D030084F30200D0FA02005E
:1054500020E7020030B50C0087B00121050020686C
:10546000FFF7EEFE022203A9606808F029FC049A07
:10547000022D06D9A06808F069FA049A824200D980
:105480000200002303990093206802AB20F03AFC4D
:10549000029B002B05D005480B2B05D018000BF004
:1054A00085F943000120184307B030BDD8EB020056
:1054B000F0B589B00191019B040001211868FFF744
:1054C000BFFE0700012C18D9019B5B685C10631CB0
:1054D00013D0210004A823F0CCFD631C03D0631E6D
:1054E000002C2FD01C00012104A823F002FE061E70
:1054F0000AD11B491B4823F07CFD0124102104A87C
:1055000023F0B7FD6442E8E70100019803AB0122F4
:1055100000683D68A847431C0ED103980B2809D1A9
:10552000059B0193012B09D104A823F0C4FD0E486B
:1055300009B0F0BD0BF03AF900280CD1012104A804
:1055400023F03BFE3B7B0948DB0700D4084804A955
:1055500000F00EFFECE733780A2BBED1F2E7C0462D
:10556000549D030084F30200D8EB0200D0FA02003D
:1055700020E70200F0B51F0004000D00160085B002
:105580000221FFF75DFE03AB0097320029002000E7
:1055900020F0B8FB039B002B05D005480B2B05D052
:1055A00018000BF003F943000120184305B0F0BDCB
:1055B000D8EB0200F8B5224E3568686801281DD97D
:1055C000AA68431ED15C0A2918D1002B03DD591E9D
:1055D000545C0A2C13D11C00844202D2115D202994
:1055E0000FD0002B0FDC1218023AE31A14789B0834
:1055F0003A3C614261415C18002C11D1F8BD0B00AE
:10560000E3E70134E8E7611C8842ECD1591E002928
:10561000E9D00139575C0A2FF0D0202FF7D0E2E70C
:10562000084F04223900280023F007FD0421380028
:1056300012F08CFF3369013C04333361DCE7C04670
:105640006001002051E5030010B52022002102482E
:105650001EF06CF910BDC046F42E0020084B10B5AA
:10566000426818600020986018750138D8600800FA
:105670005A601A61996125F0FAFCFFF79BFF10BD93
:1056800060010020F8B503780400002B1DD00F4EF8
:10569000306E002804D021001EF0CCFB002814D06E
:1056A00020001EF00BFC471C380020F0FAFD051E00
:1056B0000BD03A0021001EF0A7F8054B054A1968E7
:1056C000043B99609A42FAD13566F8BD942E0020C9
:1056D0000C2F0020F02E0020F0B5B74C02002068FF
:1056E000A568436885B00193002D00D0FDE0531EEE
:1056F000042B11D8019B61688B4200D195E0012AEF
:1057000000D12AE1022A07D123696268934200D9B5
:105710004DE10122524288E0032A00D185E0042AAB
:1057200000D12FE1052A00D107E1062A0ED1236915
:10573000019A9342AD416D42002DEADD23682900B4
:1057400098682369C01812F001FF1FE00B2A21D1CD
:10575000019B2269991A23F030FD2368019A5B6846
:105760009A4204D913002269981A12F027FF22687E
:10577000236951689068C91AC01812F0E7FE2368BF
:1057800058682369C01A401B12F006FF23695D198F
:105790002561BEE70E2A13D1E368002BB9DB013B7C
:1057A000E3606268019B991A23F007FDE368002B10
:1057B00018DB1633814A9B00D318996820680FE0E4
:1057C000102A16D1E368062BA3DC5D1C7B4A173335
:1057D0009B00D318996800299BD06368E5604360FB
:1057E00023F0B0FC63682269D61A22685568ED1A66
:1057F0000AE0152A0CD12369626861689A1A23F0BD
:10580000E4FC236962689E1A0127002E2FDCA4E7BE
:105810000D2A0DD16A4825F02AFC206823F077FC78
:105820006368C018FFF72EFF0022100005B0F0BD1E
:1058300001231B2A62D0082A01D07F2A20D12169A6
:105840006268914200D864E700238668B618F75C66
:10585000202F13D101339F188F42F8D30126032B39
:1058600000DD0336891B320023F0AFFC0127300036
:1058700012F092FE23699E1B266178E00126F1E773
:10588000092A28D1636822698068D11AC0184D4A54
:1058900003ABFEF725FB061E00D13AE70027431CA9
:1058A0000BD1A06925F0E3FB63682269D11A226855
:1058B0009068C01812F04AFE4FE723692068F91873
:1058C000039B01375A1C03921A7823F064FCBE42F2
:1058D000F3D1350041E71300203B5E2B00D918E7D8
:1058E000216923F061FC012537E7012D08D104234C
:1058F0004F2A03D002235B2A00D00023A36008E7CD
:10590000022D20D11300303B092B03D8032322752D
:10591000A360FEE60023A360412A00D152E7422A99
:1059200000D139E7432A00D101E7442A00D1EBE650
:10593000482A12D0462A00D0EBE60027019B2269B4
:105940003E009D1A0EE00023032D29D17E2A24D18A
:10595000227D312A01D0372A0DD100252F0023695D
:1059600062689E1A0023A3609E4200DD7FE7002F3D
:1059700000D1E1E6F1E61100FB2534392942DCD003
:10598000332A0AD12169019B8B4206D9012223F0D7
:105990001CFC002501272E00E4E700252F00FAE774
:1059A000042DABD1462AC8D0482AD6D0A6E7002578
:1059B00001262F005BE7C04660010020942E0020E6
:1059C000CC77030094D10200044B88600B60044B39
:1059D00008004B600023CB607047C046D0E902004E
:1059E000F15D020070B50E001049040000251FF0A3
:1059F000ACFB73689D420AD3012B03D10C492000F4
:105A00001FF0A3FB0B4920001FF09FFB70BD002D72
:105A100003D0094920001FF098FBAB00F3180122C6
:105A20009968200007F0C2FE0135E2E77BDC030045
:105A3000629D030043B003003E54030070B50D00A7
:105A400001281ED0002803D0022807D0002004E03F
:105A50004B680E48002B00D10D4870BD00260D4C40
:105A60006B689E4203D3012064002043F5E7B30036
:105A7000EB189968022009F01BFF4010241801362A
:105A8000EEE74B685B001843E7E7C04688CB0200AF
:105A900080CB0200A8E4020070B506000D000C489F
:105AA000002E0FD0B41CA400200020F0EDFB094A0A
:105AB000030002604660002D04D00022083C94429E
:105AC00001D1180070BDA858991888600432F6E713
:105AD000A8E40200B0E40200F0B5070085B00D00B4
